{
  "contractName": "Auction",
  "abi": [
    {
      "constant": true,
      "inputs": [],
      "name": "beneficiary",
      "outputs": [
        {
          "name": "",
          "type": "address"
        }
      ],
      "payable": false,
      "stateMutability": "view",
      "type": "function"
    },
    {
      "constant": true,
      "inputs": [],
      "name": "highestBidder",
      "outputs": [
        {
          "name": "",
          "type": "address"
        }
      ],
      "payable": false,
      "stateMutability": "view",
      "type": "function"
    },
    {
      "constant": true,
      "inputs": [],
      "name": "highestBid",
      "outputs": [
        {
          "name": "",
          "type": "uint256"
        }
      ],
      "payable": false,
      "stateMutability": "view",
      "type": "function"
    },
    {
      "constant": true,
      "inputs": [],
      "name": "item",
      "outputs": [
        {
          "name": "",
          "type": "uint256"
        }
      ],
      "payable": false,
      "stateMutability": "view",
      "type": "function"
    },
    {
      "inputs": [
        {
          "name": "_beneficiary",
          "type": "address"
        },
        {
          "name": "_biddingTime",
          "type": "uint256"
        },
        {
          "name": "_startPrice",
          "type": "uint256"
        },
        {
          "name": "_item",
          "type": "uint256"
        }
      ],
      "payable": false,
      "stateMutability": "nonpayable",
      "type": "constructor"
    },
    {
      "anonymous": false,
      "inputs": [],
      "name": "AuctionCreated",
      "type": "event"
    },
    {
      "anonymous": false,
      "inputs": [
        {
          "indexed": false,
          "name": "bidder",
          "type": "address"
        },
        {
          "indexed": false,
          "name": "amount",
          "type": "uint256"
        }
      ],
      "name": "HighestBidIncreased",
      "type": "event"
    },
    {
      "anonymous": false,
      "inputs": [
        {
          "indexed": false,
          "name": "winner",
          "type": "address"
        },
        {
          "indexed": false,
          "name": "amount",
          "type": "uint256"
        }
      ],
      "name": "AuctionEnded",
      "type": "event"
    },
    {
      "constant": false,
      "inputs": [],
      "name": "bid",
      "outputs": [],
      "payable": true,
      "stateMutability": "payable",
      "type": "function"
    },
    {
      "constant": false,
      "inputs": [],
      "name": "withdraw",
      "outputs": [],
      "payable": false,
      "stateMutability": "nonpayable",
      "type": "function"
    },
    {
      "constant": true,
      "inputs": [
        {
          "name": "account",
          "type": "address"
        }
      ],
      "name": "getWithdraw",
      "outputs": [
        {
          "name": "",
          "type": "bool"
        }
      ],
      "payable": false,
      "stateMutability": "view",
      "type": "function"
    },
    {
      "constant": false,
      "inputs": [],
      "name": "auctionEnd",
      "outputs": [],
      "payable": false,
      "stateMutability": "nonpayable",
      "type": "function"
    },
    {
      "constant": true,
      "inputs": [],
      "name": "getAuctionInfo",
      "outputs": [
        {
          "name": "",
          "type": "address"
        },
        {
          "name": "",
          "type": "uint256"
        },
        {
          "name": "",
          "type": "uint256"
        },
        {
          "name": "",
          "type": "uint256"
        }
      ],
      "payable": false,
      "stateMutability": "view",
      "type": "function"
    }
  ],
  "bytecode": "0x6060604052341561000f57600080fd5b60405160808061098383398101604052808051906020019091908051906020019091908051906020019091908051906020019091905050836000806101000a81548173ffffffffffffffffffffffffffffffffffffffff021916908373ffffffffffffffffffffffffffffffffffffffff1602179055508242016001819055508060028190555081600481905550816005819055507fd3a5f6ff4ebcf321d7f06702bdd20b4c9f78616c9cc96c946d930e06e971444460405160405180910390a1505050506108a0806100e36000396000f300606060405260043610610099576000357c0100000000000000000000000000000000000000000000000000000000900463ffffffff1680631998aeef1461009e5780632a24f46c146100a857806338af3eed146100bd5780633ccfd60b146101125780633eca264e1461012757806391f9015714610178578063d57bde79146101cd578063d94a3505146101f6578063f2a4a82e14610260575b600080fd5b6100a6610289565b005b34156100b357600080fd5b6100bb6104c0565b005b34156100c857600080fd5b6100d0610669565b604051808273ffffffffffffffffffffffffffffffffffffffff1673ffffffffffffffffffffffffffffffffffffffff16815260200191505060405180910390f35b341561011d57600080fd5b61012561068e565b005b341561013257600080fd5b61015e600480803573ffffffffffffffffffffffffffffffffffffffff169060200190919050506107a7565b604051808215151515815260200191505060405180910390f35b341561018357600080fd5b61018b610803565b604051808273ffffffffffffffffffffffffffffffffffffffff1673ffffffffffffffffffffffffffffffffffffffff16815260200191505060405180910390f35b34156101d857600080fd5b6101e0610829565b6040518082815260200191505060405180910390f35b341561020157600080fd5b61020961082f565b604051808573ffffffffffffffffffffffffffffffffffffffff1673ffffffffffffffffffffffffffffffffffffffff16815260200184815260200183815260200182815260200194505050505060405180910390f35b341561026b57600080fd5b61027361086e565b6040518082815260200191505060405180910390f35b600154421115151561029a57600080fd5b600554341115156102aa57600080fd5b6000809054906101000a900473ffffffffffffffffffffffffffffffffffffffff1673ffffffffffffffffffffffffffffffffffffffff163373ffffffffffffffffffffffffffffffffffffffff16141580156103555750600360009054906101000a900473ffffffffffffffffffffffffffffffffffffffff1673ffffffffffffffffffffffffffffffffffffffff163373ffffffffffffffffffffffffffffffffffffffff1614155b151561036057600080fd5b6000600360009054906101000a900473ffffffffffffffffffffffffffffffffffffffff1673ffffffffffffffffffffffffffffffffffffffff1614151561040b5760055460076000600360009054906101000a900473ffffffffffffffffffffffffffffffffffffffff1673ffffffffffffffffffffffffffffffffffffffff1673ffffffffffffffffffffffffffffffffffffffff168152602001908152602001600020819055505b33600360006101000a81548173ffffffffffffffffffffffffffffffffffffffff021916908373ffffffffffffffffffffffffffffffffffffffff160217905550346005819055507ff4757a49b326036464bec6fe419a4ae38c8a02ce3e68bf0809674f6aab8ad3003334604051808373ffffffffffffffffffffffffffffffffffffffff1673ffffffffffffffffffffffffffffffffffffffff1681526020018281526020019250505060405180910390a1565b60015442101515156104d157600080fd5b6000809054906101000a900473ffffffffffffffffffffffffffffffffffffffff1673ffffffffffffffffffffffffffffffffffffffff163373ffffffffffffffffffffffffffffffffffffffff1614151561052c57600080fd5b60045460055411151561053e57600080fd5b600660009054906101000a900460ff1615151561055a57600080fd5b6001600660006101000a81548160ff0219169083151502179055507fdaec4582d5d9595688c8c98545fdd1c696d41c6aeaeb636737e84ed2f5c00eda600360009054906101000a900473ffffffffffffffffffffffffffffffffffffffff16600554604051808373ffffffffffffffffffffffffffffffffffffffff1673ffffffffffffffffffffffffffffffffffffffff1681526020018281526020019250505060405180910390a16000809054906101000a900473ffffffffffffffffffffffffffffffffffffffff1673ffffffffffffffffffffffffffffffffffffffff166108fc6005549081150290604051600060405180830381858888f19350505050151561066757600080fd5b565b6000809054906101000a900473ffffffffffffffffffffffffffffffffffffffff1681565b600080600760003373ffffffffffffffffffffffffffffffffffffffff1673ffffffffffffffffffffffffffffffffffffffff168152602001908152602001600020541115156106dd57600080fd5b600760003373ffffffffffffffffffffffffffffffffffffffff1673ffffffffffffffffffffffffffffffffffffffff1681526020019081526020016000205490506000600760003373ffffffffffffffffffffffffffffffffffffffff1673ffffffffffffffffffffffffffffffffffffffff168152602001908152602001600020819055503373ffffffffffffffffffffffffffffffffffffffff166108fc829081150290604051600060405180830381858888f1935050505015156107a457600080fd5b50565b600080600760008473ffffffffffffffffffffffffffffffffffffffff1673ffffffffffffffffffffffffffffffffffffffff1681526020019081526020016000205411156107f957600190506107fe565b600090505b919050565b600360009054906101000a900473ffffffffffffffffffffffffffffffffffffffff1681565b60055481565b6000806000806000809054906101000a900473ffffffffffffffffffffffffffffffffffffffff16600554600154600254935093509350935090919293565b600254815600a165627a7a72305820546c4057b46d707d1f91f66bb237f2f0d568a6743052862afef5f1cb2b68cd090029",
  "source": "pragma solidity ^0.4.19;\n\ncontract Auction {\n    // Parameters\n    address public beneficiary;\n    uint public auctionEnd;\n    uint public item;\n\n    // State\n    address public highestBidder;\n    uint private startPrice;\n    uint public highestBid;\n    bool private ended;\n\n    // Pending widrawals\n    mapping(address => uint) pendingReturns;\n\n    // Events\n    event AuctionCreated();\n    event HighestBidIncreased(address bidder, uint amount);\n    event AuctionEnded(address winner, uint amount);\n\n    // Create new auction\n    function Auction(\n        address _beneficiary,\n        uint _biddingTime,\n        uint _startPrice,\n        uint _item\n \t) public {\n        beneficiary = _beneficiary;\n        auctionEnd = now + _biddingTime;\n        item = _item;\n        startPrice = _startPrice;\n        highestBid = _startPrice;\n        AuctionCreated();\n    }\n\n    function bid() public payable {\n        require(now <= auctionEnd);\n        require(msg.value > highestBid);\n        require(msg.sender != beneficiary && msg.sender != highestBidder);\n\n        if (highestBidder != 0) {\n            pendingReturns[highestBidder] = highestBid;\n        }\n        highestBidder = msg.sender;\n        highestBid = msg.value;\n        HighestBidIncreased(msg.sender, msg.value);\n    }\n\n    /// Withdraw a bid that was overbid.\n    function withdraw() public {\n        require(pendingReturns[msg.sender] > 0);\n        uint amount = pendingReturns[msg.sender];\n        pendingReturns[msg.sender] = 0;\n        msg.sender.transfer(amount);\n    }\n\n    function getWithdraw(address account) public view returns(bool) {\n        if (pendingReturns[account] > 0) {\n            return true;\n        }\n        return false;\n    }\n\n    function auctionEnd() public {\n        require(now >= auctionEnd);\n        require(msg.sender == beneficiary);\n        require(highestBid > startPrice);\n        require(!ended);\n\n        ended = true;\n        AuctionEnded(highestBidder, highestBid);\n\n        beneficiary.transfer(highestBid);\n    }\n\n    function getAuctionInfo() public view returns(address,uint,uint,uint) {\n        return (beneficiary, highestBid, auctionEnd, item);\n    }\n\n}",
  "sourcePath": "/Users/morgantrudeau/Documents/projects/1UP/contracts/Auction.sol",
  "compiler": {
    "name": "solc",
    "version": "0.4.19+commit.c4cbbb05.Emscripten.clang"
  },
  "schemaVersion": "2.0.0",
  "updatedAt": "2018-03-29T00:37:15.812Z"
}