{
  "contractName": "AuctionHouse",
  "abi": [
    {
      "constant": false,
      "inputs": [
        {
          "name": "_beneficiary",
          "type": "address"
        },
        {
          "name": "_biddingTime",
          "type": "uint256"
        },
        {
          "name": "_startPrice",
          "type": "uint256"
        },
        {
          "name": "_item",
          "type": "uint256"
        }
      ],
      "name": "createAuction",
      "outputs": [
        {
          "name": "",
          "type": "address"
        }
      ],
      "payable": false,
      "stateMutability": "nonpayable",
      "type": "function"
    },
    {
      "constant": true,
      "inputs": [],
      "name": "getAuctionIds",
      "outputs": [
        {
          "name": "",
          "type": "address[]"
        }
      ],
      "payable": false,
      "stateMutability": "view",
      "type": "function"
    }
  ],
  "bytecode": "0x6060604052341561000f57600080fd5b610ce88061001e6000396000f30060606040526004361061004c576000357c0100000000000000000000000000000000000000000000000000000000900463ffffffff1680631094db1b1461005157806361beb1d7146100bb575b600080fd5b341561005c57600080fd5b61006461014f565b6040518080602001828103825283818151815260200191508051906020019060200280838360005b838110156100a757808201518184015260208101905061008c565b505050509050019250505060405180910390f35b34156100c657600080fd5b61010d600480803573ffffffffffffffffffffffffffffffffffffffff169060200190919080359060200190919080359060200190919080359060200190919050506101e3565b604051808273ffffffffffffffffffffffffffffffffffffffff1673ffffffffffffffffffffffffffffffffffffffff16815260200191505060405180910390f35b6101576102c4565b60008054806020026020016040519081016040528092919081815260200182805480156101d957602002820191906000526020600020905b8160009054906101000a900473ffffffffffffffffffffffffffffffffffffffff1673ffffffffffffffffffffffffffffffffffffffff168152602001906001019080831161018f575b5050505050905090565b600080858585856101f26102d8565b808573ffffffffffffffffffffffffffffffffffffffff1673ffffffffffffffffffffffffffffffffffffffff168152602001848152602001838152602001828152602001945050505050604051809103906000f080151561025357600080fd5b90506000805480600101828161026991906102e8565b9160005260206000209001600083909190916101000a81548173ffffffffffffffffffffffffffffffffffffffff021916908373ffffffffffffffffffffffffffffffffffffffff1602179055505080915050949350505050565b602060405190810160405280600081525090565b6040516109838061033a83390190565b81548183558181151161030f5781836000526020600020918201910161030e9190610314565b5b505050565b61033691905b8082111561033257600081600090555060010161031a565b5090565b9056006060604052341561000f57600080fd5b60405160808061098383398101604052808051906020019091908051906020019091908051906020019091908051906020019091905050836000806101000a81548173ffffffffffffffffffffffffffffffffffffffff021916908373ffffffffffffffffffffffffffffffffffffffff1602179055508242016001819055508060028190555081600481905550816005819055507fd3a5f6ff4ebcf321d7f06702bdd20b4c9f78616c9cc96c946d930e06e971444460405160405180910390a1505050506108a0806100e36000396000f300606060405260043610610099576000357c0100000000000000000000000000000000000000000000000000000000900463ffffffff1680631998aeef1461009e5780632a24f46c146100a857806338af3eed146100bd5780633ccfd60b146101125780633eca264e1461012757806391f9015714610178578063d57bde79146101cd578063d94a3505146101f6578063f2a4a82e14610260575b600080fd5b6100a6610289565b005b34156100b357600080fd5b6100bb6104c0565b005b34156100c857600080fd5b6100d0610669565b604051808273ffffffffffffffffffffffffffffffffffffffff1673ffffffffffffffffffffffffffffffffffffffff16815260200191505060405180910390f35b341561011d57600080fd5b61012561068e565b005b341561013257600080fd5b61015e600480803573ffffffffffffffffffffffffffffffffffffffff169060200190919050506107a7565b604051808215151515815260200191505060405180910390f35b341561018357600080fd5b61018b610803565b604051808273ffffffffffffffffffffffffffffffffffffffff1673ffffffffffffffffffffffffffffffffffffffff16815260200191505060405180910390f35b34156101d857600080fd5b6101e0610829565b6040518082815260200191505060405180910390f35b341561020157600080fd5b61020961082f565b604051808573ffffffffffffffffffffffffffffffffffffffff1673ffffffffffffffffffffffffffffffffffffffff16815260200184815260200183815260200182815260200194505050505060405180910390f35b341561026b57600080fd5b61027361086e565b6040518082815260200191505060405180910390f35b600154421115151561029a57600080fd5b600554341115156102aa57600080fd5b6000809054906101000a900473ffffffffffffffffffffffffffffffffffffffff1673ffffffffffffffffffffffffffffffffffffffff163373ffffffffffffffffffffffffffffffffffffffff16141580156103555750600360009054906101000a900473ffffffffffffffffffffffffffffffffffffffff1673ffffffffffffffffffffffffffffffffffffffff163373ffffffffffffffffffffffffffffffffffffffff1614155b151561036057600080fd5b6000600360009054906101000a900473ffffffffffffffffffffffffffffffffffffffff1673ffffffffffffffffffffffffffffffffffffffff1614151561040b5760055460076000600360009054906101000a900473ffffffffffffffffffffffffffffffffffffffff1673ffffffffffffffffffffffffffffffffffffffff1673ffffffffffffffffffffffffffffffffffffffff168152602001908152602001600020819055505b33600360006101000a81548173ffffffffffffffffffffffffffffffffffffffff021916908373ffffffffffffffffffffffffffffffffffffffff160217905550346005819055507ff4757a49b326036464bec6fe419a4ae38c8a02ce3e68bf0809674f6aab8ad3003334604051808373ffffffffffffffffffffffffffffffffffffffff1673ffffffffffffffffffffffffffffffffffffffff1681526020018281526020019250505060405180910390a1565b60015442101515156104d157600080fd5b6000809054906101000a900473ffffffffffffffffffffffffffffffffffffffff1673ffffffffffffffffffffffffffffffffffffffff163373ffffffffffffffffffffffffffffffffffffffff1614151561052c57600080fd5b60045460055411151561053e57600080fd5b600660009054906101000a900460ff1615151561055a57600080fd5b6001600660006101000a81548160ff0219169083151502179055507fdaec4582d5d9595688c8c98545fdd1c696d41c6aeaeb636737e84ed2f5c00eda600360009054906101000a900473ffffffffffffffffffffffffffffffffffffffff16600554604051808373ffffffffffffffffffffffffffffffffffffffff1673ffffffffffffffffffffffffffffffffffffffff1681526020018281526020019250505060405180910390a16000809054906101000a900473ffffffffffffffffffffffffffffffffffffffff1673ffffffffffffffffffffffffffffffffffffffff166108fc6005549081150290604051600060405180830381858888f19350505050151561066757600080fd5b565b6000809054906101000a900473ffffffffffffffffffffffffffffffffffffffff1681565b600080600760003373ffffffffffffffffffffffffffffffffffffffff1673ffffffffffffffffffffffffffffffffffffffff168152602001908152602001600020541115156106dd57600080fd5b600760003373ffffffffffffffffffffffffffffffffffffffff1673ffffffffffffffffffffffffffffffffffffffff1681526020019081526020016000205490506000600760003373ffffffffffffffffffffffffffffffffffffffff1673ffffffffffffffffffffffffffffffffffffffff168152602001908152602001600020819055503373ffffffffffffffffffffffffffffffffffffffff166108fc829081150290604051600060405180830381858888f1935050505015156107a457600080fd5b50565b600080600760008473ffffffffffffffffffffffffffffffffffffffff1673ffffffffffffffffffffffffffffffffffffffff1681526020019081526020016000205411156107f957600190506107fe565b600090505b919050565b600360009054906101000a900473ffffffffffffffffffffffffffffffffffffffff1681565b60055481565b6000806000806000809054906101000a900473ffffffffffffffffffffffffffffffffffffffff16600554600154600254935093509350935090919293565b600254815600a165627a7a72305820546c4057b46d707d1f91f66bb237f2f0d568a6743052862afef5f1cb2b68cd090029a165627a7a7230582040704208c793ff812515e694dfae3571fdd620d1ea26930debf21c6c0885ac020029",
  "source": "pragma solidity ^0.4.19;\n\nimport \"./Auction.sol\";\n\ncontract AuctionHouse {\n    // List of active auctions\n    address[] auctionIds;\n\n    // Deploy new auction contract\n    function createAuction(\n        address _beneficiary, \n        uint _biddingTime,\n        uint _startPrice,\n        uint _item\n    ) public returns(address) {\n        Auction id = new Auction(_beneficiary,_biddingTime,_startPrice,_item);\n        auctionIds.push(id);\n        return id;\n    }\n    \n    function getAuctionIds() public view returns(address[]) {\n        return auctionIds;\n    }\n}",
  "sourcePath": "/Users/morgantrudeau/Documents/projects/1UP/contracts/AuctionHouse.sol",
  "compiler": {
    "name": "solc",
    "version": "0.4.19+commit.c4cbbb05.Emscripten.clang"
  },
  "schemaVersion": "2.0.0",
  "updatedAt": "2018-03-29T00:37:15.813Z"
}